{
  "contractName": "PatientRecords",
  "abi": [
    {
      "anonymous": false,
      "inputs": [
        {
          "indexed": true,
          "internalType": "address",
          "name": "patient",
          "type": "address"
        },
        {
          "indexed": false,
          "internalType": "string",
          "name": "name",
          "type": "string"
        },
        {
          "indexed": false,
          "internalType": "uint256",
          "name": "age",
          "type": "uint256"
        },
        {
          "indexed": false,
          "internalType": "string",
          "name": "diagnosis",
          "type": "string"
        },
        {
          "indexed": false,
          "internalType": "string",
          "name": "ipfsHash",
          "type": "string"
        }
      ],
      "name": "RecordAdded",
      "type": "event"
    },
    {
      "inputs": [
        {
          "internalType": "string",
          "name": "_name",
          "type": "string"
        },
        {
          "internalType": "uint256",
          "name": "_age",
          "type": "uint256"
        },
        {
          "internalType": "string",
          "name": "_diagnosis",
          "type": "string"
        },
        {
          "internalType": "string",
          "name": "_ipfsHash",
          "type": "string"
        }
      ],
      "name": "addRecord",
      "outputs": [],
      "stateMutability": "nonpayable",
      "type": "function"
    },
    {
      "inputs": [
        {
          "internalType": "address",
          "name": "_patient",
          "type": "address"
        }
      ],
      "name": "getRecord",
      "outputs": [
        {
          "internalType": "string",
          "name": "",
          "type": "string"
        },
        {
          "internalType": "uint256",
          "name": "",
          "type": "uint256"
        },
        {
          "internalType": "string",
          "name": "",
          "type": "string"
        },
        {
          "internalType": "string",
          "name": "",
          "type": "string"
        }
      ],
      "stateMutability": "view",
      "type": "function"
    }
  ],
  "bytecode": "0x608060405234801561000f575f80fd5b5061069e8061001d5f395ff3fe608060405234801561000f575f80fd5b5060043610610034575f3560e01c806343a949b514610038578063617fba041461004d575b5f80fd5b61004b6100463660046103e1565b610079565b005b61006061005b36600461046d565b610133565b60405161007094939291906104dd565b60405180910390f35b60408051608081018252858152602080820186905281830185905260608201849052335f9081529081905291909120815181906100b690826105ac565b5060208201516001820155604082015160028201906100d590826105ac565b50606082015160038201906100ea90826105ac565b50506040513391507f39253389fd372d61b9cc935e35b8e38716ebe436719f3612102a95497245b7e6906101259087908790879087906104dd565b60405180910390a250505050565b60605f6060805f805f876001600160a01b03166001600160a01b031681526020019081526020015f206040518060800160405290815f8201805461017690610526565b80601f01602080910402602001604051908101604052809291908181526020018280546101a290610526565b80156101ed5780601f106101c4576101008083540402835291602001916101ed565b820191905f5260205f20905b8154815290600101906020018083116101d057829003601f168201915b505050505081526020016001820154815260200160028201805461021090610526565b80601f016020809104026020016040519081016040528092919081815260200182805461023c90610526565b80156102875780601f1061025e57610100808354040283529160200191610287565b820191905f5260205f20905b81548152906001019060200180831161026a57829003601f168201915b505050505081526020016003820180546102a090610526565b80601f01602080910402602001604051908101604052809291908181526020018280546102cc90610526565b80156103175780601f106102ee57610100808354040283529160200191610317565b820191905f5260205f20905b8154815290600101906020018083116102fa57829003601f168201915b505050919092525050815160208301516040840151606090940151919a9099509297509550909350505050565b634e487b7160e01b5f52604160045260245ffd5b5f82601f830112610367575f80fd5b813567ffffffffffffffff8082111561038257610382610344565b604051601f8301601f19908116603f011681019082821181831017156103aa576103aa610344565b816040528381528660208588010111156103c2575f80fd5b836020870160208301375f602085830101528094505050505092915050565b5f805f80608085870312156103f4575f80fd5b843567ffffffffffffffff8082111561040b575f80fd5b61041788838901610358565b9550602087013594506040870135915080821115610433575f80fd5b61043f88838901610358565b93506060870135915080821115610454575f80fd5b5061046187828801610358565b91505092959194509250565b5f6020828403121561047d575f80fd5b81356001600160a01b0381168114610493575f80fd5b9392505050565b5f81518084525f5b818110156104be576020818501810151868301820152016104a2565b505f602082860101526020601f19601f83011685010191505092915050565b608081525f6104ef608083018761049a565b8560208401528281036040840152610507818661049a565b9050828103606084015261051b818561049a565b979650505050505050565b600181811c9082168061053a57607f821691505b60208210810361055857634e487b7160e01b5f52602260045260245ffd5b50919050565b601f8211156105a7575f81815260208120601f850160051c810160208610156105845750805b601f850160051c820191505b818110156105a357828155600101610590565b5050505b505050565b815167ffffffffffffffff8111156105c6576105c6610344565b6105da816105d48454610526565b8461055e565b602080601f83116001811461060d575f84156105f65750858301515b5f19600386901b1c1916600185901b1785556105a3565b5f85815260208120601f198616915b8281101561063b5788860151825594840194600190910190840161061c565b508582101561065857878501515f19600388901b60f8161c191681555b5050505050600190811b0190555056fea2646970667358221220e47a127c014ba0d15ad201de6dfc06171779ab68f41c5ec41c2b96ec346ed54864736f6c63430008150033",
  "immutableReferences": {},
  "source": "// SPDX-License-Identifier: MIT\r\npragma solidity ^0.8.0;\r\n\r\ncontract PatientRecords {\r\n    struct Patient {\r\n        string name;\r\n        uint age;\r\n        string diagnosis;\r\n        string ipfsHash;\r\n    }\r\n\r\n    mapping(address => Patient) private records;\r\n\r\n    event RecordAdded(\r\n        address indexed patient,\r\n        string name,\r\n        uint age,\r\n        string diagnosis,\r\n        string ipfsHash\r\n    );\r\n\r\n    function addRecord(\r\n        string memory _name,\r\n        uint _age,\r\n        string memory _diagnosis,\r\n        string memory _ipfsHash\r\n    ) public {\r\n        records[msg.sender] = Patient(\r\n            _name,\r\n            _age,\r\n            _diagnosis,\r\n            _ipfsHash\r\n        );\r\n\r\n        emit RecordAdded(\r\n            msg.sender,\r\n            _name,\r\n            _age,\r\n            _diagnosis,\r\n            _ipfsHash\r\n        );\r\n    }\r\n\r\n    function getRecord(address _patient)\r\n        public\r\n        view\r\n        returns (string memory, uint, string memory, string memory)\r\n    {\r\n        Patient memory p = records[_patient];\r\n        return (p.name, p.age, p.diagnosis, p.ipfsHash);\r\n    }\r\n}\r\n",
  "sourcePath": "C:\\Users\\kjaya\\OneDrive\\Desktop\\secure-healthcare-blockchain-ai\\blockchain\\contracts\\PatientRecords.sol",
  "compiler": {
    "name": "solc",
    "version": "0.8.21+commit.d9974bed.Emscripten.clang"
  },
  "schemaVersion": "3.4.16",
  "updatedAt": "2026-01-07T16:49:47.924Z",
  "devdoc": {
    "kind": "dev",
    "methods": {},
    "version": 1
  },
  "userdoc": {
    "kind": "user",
    "methods": {},
    "version": 1
  }
}