{
  "contractName": "PatientRecords",
  "abi": [
    {
      "anonymous": false,
      "inputs": [
        {
          "indexed": true,
          "internalType": "address",
          "name": "patient",
          "type": "address"
        },
        {
          "indexed": false,
          "internalType": "string",
          "name": "name",
          "type": "string"
        },
        {
          "indexed": false,
          "internalType": "uint256",
          "name": "age",
          "type": "uint256"
        },
        {
          "indexed": false,
          "internalType": "string",
          "name": "diagnosis",
          "type": "string"
        },
        {
          "indexed": false,
          "internalType": "string",
          "name": "ipfsHash",
          "type": "string"
        }
      ],
      "name": "RecordAdded",
      "type": "event"
    },
    {
      "inputs": [
        {
          "internalType": "string",
          "name": "_name",
          "type": "string"
        },
        {
          "internalType": "uint256",
          "name": "_age",
          "type": "uint256"
        },
        {
          "internalType": "string",
          "name": "_diagnosis",
          "type": "string"
        },
        {
          "internalType": "string",
          "name": "_ipfsHash",
          "type": "string"
        }
      ],
      "name": "addRecord",
      "outputs": [],
      "stateMutability": "nonpayable",
      "type": "function"
    },
    {
      "inputs": [
        {
          "internalType": "address",
          "name": "_patient",
          "type": "address"
        }
      ],
      "name": "getRecord",
      "outputs": [
        {
          "internalType": "string",
          "name": "",
          "type": "string"
        },
        {
          "internalType": "uint256",
          "name": "",
          "type": "uint256"
        },
        {
          "internalType": "string",
          "name": "",
          "type": "string"
        },
        {
          "internalType": "string",
          "name": "",
          "type": "string"
        }
      ],
      "stateMutability": "view",
      "type": "function",
      "constant": true
    }
  ],
  "bytecode": "0x608060405234801561000f575f80fd5b50610a548061001d5f395ff3fe608060405234801561000f575f80fd5b5060043610610034575f3560e01c806343a949b514610038578063617fba0414610054575b5f80fd5b610052600480360381019061004d9190610537565b610087565b005b61006e60048036038101906100699190610649565b61018b565b60405161007e94939291906106fd565b60405180910390f35b6040518060800160405280858152602001848152602001838152602001828152505f803373ffffffffffffffffffffffffffffffffffffffff1673ffffffffffffffffffffffffffffffffffffffff1681526020019081526020015f205f820151815f0190816100f7919061094f565b50602082015181600101556040820151816002019081610117919061094f565b50606082015181600301908161012d919061094f565b509050503373ffffffffffffffffffffffffffffffffffffffff167f39253389fd372d61b9cc935e35b8e38716ebe436719f3612102a95497245b7e68585858560405161017d94939291906106fd565b60405180910390a250505050565b60605f6060805f805f8773ffffffffffffffffffffffffffffffffffffffff1673ffffffffffffffffffffffffffffffffffffffff1681526020019081526020015f206040518060800160405290815f820180546101e890610782565b80601f016020809104026020016040519081016040528092919081815260200182805461021490610782565b801561025f5780601f106102365761010080835404028352916020019161025f565b820191905f5260205f20905b81548152906001019060200180831161024257829003601f168201915b505050505081526020016001820154815260200160028201805461028290610782565b80601f01602080910402602001604051908101604052809291908181526020018280546102ae90610782565b80156102f95780601f106102d0576101008083540402835291602001916102f9565b820191905f5260205f20905b8154815290600101906020018083116102dc57829003601f168201915b5050505050815260200160038201805461031290610782565b80601f016020809104026020016040519081016040528092919081815260200182805461033e90610782565b80156103895780601f1061036057610100808354040283529160200191610389565b820191905f5260205f20905b81548152906001019060200180831161036c57829003601f168201915b5050505050815250509050805f01518160200151826040015183606001519450945094509450509193509193565b5f604051905090565b5f80fd5b5f80fd5b5f80fd5b5f80fd5b5f601f19601f8301169050919050565b7f4e487b71000000000000000000000000000000000000000000000000000000005f52604160045260245ffd5b610416826103d0565b810181811067ffffffffffffffff82111715610435576104346103e0565b5b80604052505050565b5f6104476103b7565b9050610453828261040d565b919050565b5f67ffffffffffffffff821115610472576104716103e0565b5b61047b826103d0565b9050602081019050919050565b828183375f83830152505050565b5f6104a86104a384610458565b61043e565b9050828152602081018484840111156104c4576104c36103cc565b5b6104cf848285610488565b509392505050565b5f82601f8301126104eb576104ea6103c8565b5b81356104fb848260208601610496565b91505092915050565b5f819050919050565b61051681610504565b8114610520575f80fd5b50565b5f813590506105318161050d565b92915050565b5f805f806080858703121561054f5761054e6103c0565b5b5f85013567ffffffffffffffff81111561056c5761056b6103c4565b5b610578878288016104d7565b945050602061058987828801610523565b935050604085013567ffffffffffffffff8111156105aa576105a96103c4565b5b6105b6878288016104d7565b925050606085013567ffffffffffffffff8111156105d7576105d66103c4565b5b6105e3878288016104d7565b91505092959194509250565b5f73ffffffffffffffffffffffffffffffffffffffff82169050919050565b5f610618826105ef565b9050919050565b6106288161060e565b8114610632575f80fd5b50565b5f813590506106438161061f565b92915050565b5f6020828403121561065e5761065d6103c0565b5b5f61066b84828501610635565b91505092915050565b5f81519050919050565b5f82825260208201905092915050565b5f5b838110156106ab578082015181840152602081019050610690565b5f8484015250505050565b5f6106c082610674565b6106ca818561067e565b93506106da81856020860161068e565b6106e3816103d0565b840191505092915050565b6106f781610504565b82525050565b5f6080820190508181035f83015261071581876106b6565b905061072460208301866106ee565b818103604083015261073681856106b6565b9050818103606083015261074a81846106b6565b905095945050505050565b7f4e487b71000000000000000000000000000000000000000000000000000000005f52602260045260245ffd5b5f600282049050600182168061079957607f821691505b6020821081036107ac576107ab610755565b5b50919050565b5f819050815f5260205f209050919050565b5f6020601f8301049050919050565b5f82821b905092915050565b5f6008830261080e7fffffffffffffffffffffffffffffffffffffffffffffffffffffffffffffffff826107d3565b61081886836107d3565b95508019841693508086168417925050509392505050565b5f819050919050565b5f61085361084e61084984610504565b610830565b610504565b9050919050565b5f819050919050565b61086c83610839565b6108806108788261085a565b8484546107df565b825550505050565b5f90565b610894610888565b61089f818484610863565b505050565b5b818110156108c2576108b75f8261088c565b6001810190506108a5565b5050565b601f821115610907576108d8816107b2565b6108e1846107c4565b810160208510156108f0578190505b6109046108fc856107c4565b8301826108a4565b50505b505050565b5f82821c905092915050565b5f6109275f198460080261090c565b1980831691505092915050565b5f61093f8383610918565b9150826002028217905092915050565b61095882610674565b67ffffffffffffffff811115610971576109706103e0565b5b61097b8254610782565b6109868282856108c6565b5f60209050601f8311600181146109b7575f84156109a5578287015190505b6109af8582610934565b865550610a16565b601f1984166109c5866107b2565b5f5b828110156109ec578489015182556001820191506020850194506020810190506109c7565b86831015610a095784890151610a05601f891682610918565b8355505b6001600288020188555050505b50505050505056fea2646970667358221220d3fa266bf2e9d3cc6ea530e94838a5888b2dfa1b074b7a6addabe11dfe3503dd64736f6c63430008150033",
  "immutableReferences": {},
  "source": "// SPDX-License-Identifier: MIT\r\npragma solidity ^0.8.0;\r\n\r\ncontract PatientRecords {\r\n    struct Patient {\r\n        string name;\r\n        uint age;\r\n        string diagnosis;\r\n        string ipfsHash;\r\n    }\r\n\r\n    mapping(address => Patient) private records;\r\n\r\n    event RecordAdded(\r\n        address indexed patient,\r\n        string name,\r\n        uint age,\r\n        string diagnosis,\r\n        string ipfsHash\r\n    );\r\n\r\n    function addRecord(\r\n        string memory _name,\r\n        uint _age,\r\n        string memory _diagnosis,\r\n        string memory _ipfsHash\r\n    ) public {\r\n        records[msg.sender] = Patient(\r\n            _name,\r\n            _age,\r\n            _diagnosis,\r\n            _ipfsHash\r\n        );\r\n\r\n        emit RecordAdded(\r\n            msg.sender,\r\n            _name,\r\n            _age,\r\n            _diagnosis,\r\n            _ipfsHash\r\n        );\r\n    }\r\n\r\n    function getRecord(address _patient)\r\n        public\r\n        view\r\n        returns (string memory, uint, string memory, string memory)\r\n    {\r\n        Patient memory p = records[_patient];\r\n        return (p.name, p.age, p.diagnosis, p.ipfsHash);\r\n    }\r\n}\r\n",
  "sourcePath": "C:\\Users\\kjaya\\OneDrive\\Desktop\\secure-healthcare-blockchain-ai\\blockchain\\contracts\\PatientRecords.sol",
  "compiler": {
    "name": "solc",
    "version": "0.8.21+commit.d9974bed.Emscripten.clang"
  },
  "schemaVersion": "3.4.16",
  "updatedAt": "2026-01-07T08:54:53.045Z",
  "networkType": "ethereum",
  "devdoc": {
    "kind": "dev",
    "methods": {},
    "version": 1
  },
  "userdoc": {
    "kind": "user",
    "methods": {},
    "version": 1
  }
}