{
  "contractName": "PatientRecords",
  "abi": [
    {
      "anonymous": false,
      "inputs": [
        {
          "indexed": true,
          "internalType": "address",
          "name": "patient",
          "type": "address"
        },
        {
          "indexed": false,
          "internalType": "string",
          "name": "name",
          "type": "string"
        },
        {
          "indexed": false,
          "internalType": "uint256",
          "name": "age",
          "type": "uint256"
        },
        {
          "indexed": false,
          "internalType": "string",
          "name": "diagnosis",
          "type": "string"
        }
      ],
      "name": "RecordAdded",
      "type": "event"
    },
    {
      "inputs": [
        {
          "internalType": "string",
          "name": "_name",
          "type": "string"
        },
        {
          "internalType": "uint256",
          "name": "_age",
          "type": "uint256"
        },
        {
          "internalType": "string",
          "name": "_diagnosis",
          "type": "string"
        }
      ],
      "name": "addRecord",
      "outputs": [],
      "stateMutability": "nonpayable",
      "type": "function"
    },
    {
      "inputs": [
        {
          "internalType": "address",
          "name": "_patient",
          "type": "address"
        }
      ],
      "name": "getRecord",
      "outputs": [
        {
          "internalType": "string",
          "name": "",
          "type": "string"
        },
        {
          "internalType": "uint256",
          "name": "",
          "type": "uint256"
        },
        {
          "internalType": "string",
          "name": "",
          "type": "string"
        }
      ],
      "stateMutability": "view",
      "type": "function",
      "constant": true
    }
  ],
  "bytecode": "0x608060405234801561000f575f80fd5b506109578061001d5f395ff3fe608060405234801561000f575f80fd5b5060043610610034575f3560e01c8063617fba0414610038578063eea8cf0f1461006a575b5f80fd5b610052600480360381019061004d919061036a565b610086565b60405161006193929190610437565b60405180910390f35b610084600480360381019061007f91906105d0565b61021a565b005b60605f60605f805f8673ffffffffffffffffffffffffffffffffffffffff1673ffffffffffffffffffffffffffffffffffffffff1681526020019081526020015f206040518060600160405290815f820180546100e290610685565b80601f016020809104026020016040519081016040528092919081815260200182805461010e90610685565b80156101595780601f1061013057610100808354040283529160200191610159565b820191905f5260205f20905b81548152906001019060200180831161013c57829003601f168201915b505050505081526020016001820154815260200160028201805461017c90610685565b80601f01602080910402602001604051908101604052809291908181526020018280546101a890610685565b80156101f35780601f106101ca576101008083540402835291602001916101f3565b820191905f5260205f20905b8154815290600101906020018083116101d657829003601f168201915b5050505050815250509050805f015181602001518260400151935093509350509193909250565b6040518060600160405280848152602001838152602001828152505f803373ffffffffffffffffffffffffffffffffffffffff1673ffffffffffffffffffffffffffffffffffffffff1681526020019081526020015f205f820151815f0190816102849190610852565b506020820151816001015560408201518160020190816102a49190610852565b509050503373ffffffffffffffffffffffffffffffffffffffff167fd9acf4f586f3b83d7a3c949df2606cf9887c3fcda27a007cc36299ce86c42ca58484846040516102f293929190610437565b60405180910390a2505050565b5f604051905090565b5f80fd5b5f80fd5b5f73ffffffffffffffffffffffffffffffffffffffff82169050919050565b5f61033982610310565b9050919050565b6103498161032f565b8114610353575f80fd5b50565b5f8135905061036481610340565b92915050565b5f6020828403121561037f5761037e610308565b5b5f61038c84828501610356565b91505092915050565b5f81519050919050565b5f82825260208201905092915050565b5f5b838110156103cc5780820151818401526020810190506103b1565b5f8484015250505050565b5f601f19601f8301169050919050565b5f6103f182610395565b6103fb818561039f565b935061040b8185602086016103af565b610414816103d7565b840191505092915050565b5f819050919050565b6104318161041f565b82525050565b5f6060820190508181035f83015261044f81866103e7565b905061045e6020830185610428565b818103604083015261047081846103e7565b9050949350505050565b5f80fd5b5f80fd5b7f4e487b71000000000000000000000000000000000000000000000000000000005f52604160045260245ffd5b6104b8826103d7565b810181811067ffffffffffffffff821117156104d7576104d6610482565b5b80604052505050565b5f6104e96102ff565b90506104f582826104af565b919050565b5f67ffffffffffffffff82111561051457610513610482565b5b61051d826103d7565b9050602081019050919050565b828183375f83830152505050565b5f61054a610545846104fa565b6104e0565b9050828152602081018484840111156105665761056561047e565b5b61057184828561052a565b509392505050565b5f82601f83011261058d5761058c61047a565b5b813561059d848260208601610538565b91505092915050565b6105af8161041f565b81146105b9575f80fd5b50565b5f813590506105ca816105a6565b92915050565b5f805f606084860312156105e7576105e6610308565b5b5f84013567ffffffffffffffff8111156106045761060361030c565b5b61061086828701610579565b9350506020610621868287016105bc565b925050604084013567ffffffffffffffff8111156106425761064161030c565b5b61064e86828701610579565b9150509250925092565b7f4e487b71000000000000000000000000000000000000000000000000000000005f52602260045260245ffd5b5f600282049050600182168061069c57607f821691505b6020821081036106af576106ae610658565b5b50919050565b5f819050815f5260205f209050919050565b5f6020601f8301049050919050565b5f82821b905092915050565b5f600883026107117fffffffffffffffffffffffffffffffffffffffffffffffffffffffffffffffff826106d6565b61071b86836106d6565b95508019841693508086168417925050509392505050565b5f819050919050565b5f61075661075161074c8461041f565b610733565b61041f565b9050919050565b5f819050919050565b61076f8361073c565b61078361077b8261075d565b8484546106e2565b825550505050565b5f90565b61079761078b565b6107a2818484610766565b505050565b5b818110156107c5576107ba5f8261078f565b6001810190506107a8565b5050565b601f82111561080a576107db816106b5565b6107e4846106c7565b810160208510156107f3578190505b6108076107ff856106c7565b8301826107a7565b50505b505050565b5f82821c905092915050565b5f61082a5f198460080261080f565b1980831691505092915050565b5f610842838361081b565b9150826002028217905092915050565b61085b82610395565b67ffffffffffffffff81111561087457610873610482565b5b61087e8254610685565b6108898282856107c9565b5f60209050601f8311600181146108ba575f84156108a8578287015190505b6108b28582610837565b865550610919565b601f1984166108c8866106b5565b5f5b828110156108ef578489015182556001820191506020850194506020810190506108ca565b8683101561090c5784890151610908601f89168261081b565b8355505b6001600288020188555050505b50505050505056fea2646970667358221220d80d3b5f12b31d873f53df8b9aa2e0a213ab58ccab49395247201697b8cc694564736f6c63430008150033",
  "immutableReferences": {},
  "source": "// SPDX-License-Identifier: MIT\r\npragma solidity ^0.8.0;\r\n\r\ncontract PatientRecords {\r\n    struct Patient {\r\n        string name;\r\n        uint age;\r\n        string diagnosis;\r\n    }\r\n\r\n    mapping(address => Patient) private records;\r\n\r\n    event RecordAdded(address indexed patient, string name, uint age, string diagnosis);\r\n\r\n    function addRecord(string memory _name, uint _age, string memory _diagnosis) public {\r\n        records[msg.sender] = Patient(_name, _age, _diagnosis);\r\n        emit RecordAdded(msg.sender, _name, _age, _diagnosis);\r\n    }\r\n\r\n    function getRecord(address _patient) public view returns (string memory, uint, string memory) {\r\n        Patient memory p = records[_patient];\r\n        return (p.name, p.age, p.diagnosis);\r\n    }\r\n}\r\n",
  "sourcePath": "C:\\Users\\kjaya\\OneDrive\\Desktop\\secure-healthcare-blockchain-ai\\blockchain\\contracts\\PatientRecords.sol",
  "compiler": {
    "name": "solc",
    "version": "0.8.21+commit.d9974bed.Emscripten.clang"
  },
  "schemaVersion": "3.4.16",
  "updatedAt": "2026-01-02T16:13:00.154Z",
  "networkType": "ethereum",
  "devdoc": {
    "kind": "dev",
    "methods": {},
    "version": 1
  },
  "userdoc": {
    "kind": "user",
    "methods": {},
    "version": 1
  }
}