{
  "_format": "hh-sol-artifact-1",
  "contractName": "PatientRecords",
  "sourceName": "contracts/PatientRecords.sol",
  "abi": [
    {
      "inputs": [],
      "stateMutability": "nonpayable",
      "type": "constructor"
    },
    {
      "anonymous": false,
      "inputs": [
        {
          "indexed": false,
          "internalType": "address",
          "name": "doctor",
          "type": "address"
        }
      ],
      "name": "DoctorRegistered",
      "type": "event"
    },
    {
      "anonymous": false,
      "inputs": [
        {
          "indexed": false,
          "internalType": "address",
          "name": "patient",
          "type": "address"
        }
      ],
      "name": "PatientRegistered",
      "type": "event"
    },
    {
      "anonymous": false,
      "inputs": [
        {
          "indexed": false,
          "internalType": "address",
          "name": "patient",
          "type": "address"
        },
        {
          "indexed": false,
          "internalType": "string",
          "name": "ipfsHash",
          "type": "string"
        }
      ],
      "name": "RecordAdded",
      "type": "event"
    },
    {
      "inputs": [
        {
          "internalType": "address",
          "name": "_patient",
          "type": "address"
        },
        {
          "internalType": "string",
          "name": "_name",
          "type": "string"
        },
        {
          "internalType": "uint256",
          "name": "_age",
          "type": "uint256"
        },
        {
          "internalType": "string",
          "name": "_diagnosis",
          "type": "string"
        },
        {
          "internalType": "string",
          "name": "_ipfsHash",
          "type": "string"
        }
      ],
      "name": "addRecord",
      "outputs": [],
      "stateMutability": "nonpayable",
      "type": "function"
    },
    {
      "inputs": [],
      "name": "admin",
      "outputs": [
        {
          "internalType": "address",
          "name": "",
          "type": "address"
        }
      ],
      "stateMutability": "view",
      "type": "function"
    },
    {
      "inputs": [
        {
          "internalType": "address",
          "name": "",
          "type": "address"
        }
      ],
      "name": "doctors",
      "outputs": [
        {
          "internalType": "bool",
          "name": "",
          "type": "bool"
        }
      ],
      "stateMutability": "view",
      "type": "function"
    },
    {
      "inputs": [],
      "name": "getMyRecord",
      "outputs": [
        {
          "internalType": "string",
          "name": "",
          "type": "string"
        },
        {
          "internalType": "uint256",
          "name": "",
          "type": "uint256"
        },
        {
          "internalType": "string",
          "name": "",
          "type": "string"
        },
        {
          "internalType": "string",
          "name": "",
          "type": "string"
        }
      ],
      "stateMutability": "view",
      "type": "function"
    },
    {
      "inputs": [
        {
          "internalType": "address",
          "name": "",
          "type": "address"
        }
      ],
      "name": "patients",
      "outputs": [
        {
          "internalType": "bool",
          "name": "",
          "type": "bool"
        }
      ],
      "stateMutability": "view",
      "type": "function"
    },
    {
      "inputs": [
        {
          "internalType": "address",
          "name": "_doctor",
          "type": "address"
        }
      ],
      "name": "registerDoctor",
      "outputs": [],
      "stateMutability": "nonpayable",
      "type": "function"
    },
    {
      "inputs": [
        {
          "internalType": "address",
          "name": "_patient",
          "type": "address"
        }
      ],
      "name": "registerPatient",
      "outputs": [],
      "stateMutability": "nonpayable",
      "type": "function"
    }
  ],
  "bytecode": "0x608060405234801561001057600080fd5b50336000806101000a81548173ffffffffffffffffffffffffffffffffffffffff021916908373ffffffffffffffffffffffffffffffffffffffff160217905550611209806100606000396000f3fe608060405234801561001057600080fd5b506004361061007d5760003560e01c806350d87c4d1161005b57806350d87c4d146100ea578063699ca9981461010b578063a9583c2214610127578063f851a440146101575761007d565b80630869cfbc146100825780631388c519146100b257806333091b13146100ce575b600080fd5b61009c60048036038101906100979190610955565b610175565b6040516100a9919061099d565b60405180910390f35b6100cc60048036038101906100c79190610955565b610195565b005b6100e860048036038101906100e39190610b34565b6102b5565b005b6100f26104bc565b6040516101029493929190610c91565b60405180910390f35b61012560048036038101906101209190610955565b610780565b005b610141600480360381019061013c9190610955565b61089f565b60405161014e919061099d565b60405180910390f35b61015f6108bf565b60405161016c9190610cfa565b60405180910390f35b60026020528060005260406000206000915054906101000a900460ff1681565b60008054906101000a900473ffffffffffffffffffffffffffffffffffffffff1673ffffffffffffffffffffffffffffffffffffffff163373ffffffffffffffffffffffffffffffffffffffff1614610223576040517f08c379a000000000000000000000000000000000000000000000000000000000815260040161021a90610d61565b60405180910390fd5b6001600260008373ffffffffffffffffffffffffffffffffffffffff1673ffffffffffffffffffffffffffffffffffffffff16815260200190815260200160002060006101000a81548160ff0219169083151502179055507fc9fa2003fca4ce0dfc8cb0deae32266b715536df6685365b05b5be96ede8e49c816040516102aa9190610cfa565b60405180910390a150565b600160003373ffffffffffffffffffffffffffffffffffffffff1673ffffffffffffffffffffffffffffffffffffffff16815260200190815260200160002060009054906101000a900460ff16610341576040517f08c379a000000000000000000000000000000000000000000000000000000000815260040161033890610dcd565b60405180910390fd5b600260008673ffffffffffffffffffffffffffffffffffffffff1673ffffffffffffffffffffffffffffffffffffffff16815260200190815260200160002060009054906101000a900460ff166103cd576040517f08c379a00000000000000000000000000000000000000000000000000000000081526004016103c490610e39565b60405180910390fd5b604051806080016040528085815260200184815260200183815260200182815250600360008773ffffffffffffffffffffffffffffffffffffffff1673ffffffffffffffffffffffffffffffffffffffff16815260200190815260200160002060008201518160000190816104429190611065565b506020820151816001015560408201518160020190816104629190611065565b5060608201518160030190816104789190611065565b509050507f44626cfec8a165f72396cc5e247c6b96279f8c205a8d07c390df7aa5806205fa85826040516104ad929190611137565b60405180910390a15050505050565b60606000606080600260003373ffffffffffffffffffffffffffffffffffffffff1673ffffffffffffffffffffffffffffffffffffffff16815260200190815260200160002060009054906101000a900460ff1661054f576040517f08c379a0000000000000000000000000000000000000000000000000000000008152600401610546906111b3565b60405180910390fd5b6000600360003373ffffffffffffffffffffffffffffffffffffffff1673ffffffffffffffffffffffffffffffffffffffff1681526020019081526020016000206040518060800160405290816000820180546105ab90610e88565b80601f01602080910402602001604051908101604052809291908181526020018280546105d790610e88565b80156106245780601f106105f957610100808354040283529160200191610624565b820191906000526020600020905b81548152906001019060200180831161060757829003601f168201915b505050505081526020016001820154815260200160028201805461064790610e88565b80601f016020809104026020016040519081016040528092919081815260200182805461067390610e88565b80156106c05780601f10610695576101008083540402835291602001916106c0565b820191906000526020600020905b8154815290600101906020018083116106a357829003601f168201915b505050505081526020016003820180546106d990610e88565b80601f016020809104026020016040519081016040528092919081815260200182805461070590610e88565b80156107525780601f1061072757610100808354040283529160200191610752565b820191906000526020600020905b81548152906001019060200180831161073557829003601f168201915b5050505050815250509050806000015181602001518260400151836060015194509450945094505090919293565b60008054906101000a900473ffffffffffffffffffffffffffffffffffffffff1673ffffffffffffffffffffffffffffffffffffffff163373ffffffffffffffffffffffffffffffffffffffff161461080e576040517f08c379a000000000000000000000000000000000000000000000000000000000815260040161080590610d61565b60405180910390fd5b60018060008373ffffffffffffffffffffffffffffffffffffffff1673ffffffffffffffffffffffffffffffffffffffff16815260200190815260200160002060006101000a81548160ff0219169083151502179055507f2dc8105a7545248d0e354c4c6b02fb583071cc719fb4bef1ca74d72d475570bc816040516108949190610cfa565b60405180910390a150565b60016020528060005260406000206000915054906101000a900460ff1681565b60008054906101000a900473ffffffffffffffffffffffffffffffffffffffff1681565b6000604051905090565b600080fd5b600080fd5b600073ffffffffffffffffffffffffffffffffffffffff82169050919050565b6000610922826108f7565b9050919050565b61093281610917565b811461093d57600080fd5b50565b60008135905061094f81610929565b92915050565b60006020828403121561096b5761096a6108ed565b5b600061097984828501610940565b91505092915050565b60008115159050919050565b61099781610982565b82525050565b60006020820190506109b2600083018461098e565b92915050565b600080fd5b600080fd5b6000601f19601f8301169050919050565b7f4e487b7100000000000000000000000000000000000000000000000000000000600052604160045260246000fd5b610a0b826109c2565b810181811067ffffffffffffffff82111715610a2a57610a296109d3565b5b80604052505050565b6000610a3d6108e3565b9050610a498282610a02565b919050565b600067ffffffffffffffff821115610a6957610a686109d3565b5b610a72826109c2565b9050602081019050919050565b82818337600083830152505050565b6000610aa1610a9c84610a4e565b610a33565b905082815260208101848484011115610abd57610abc6109bd565b5b610ac8848285610a7f565b509392505050565b600082601f830112610ae557610ae46109b8565b5b8135610af5848260208601610a8e565b91505092915050565b6000819050919050565b610b1181610afe565b8114610b1c57600080fd5b50565b600081359050610b2e81610b08565b92915050565b600080600080600060a08688031215610b5057610b4f6108ed565b5b6000610b5e88828901610940565b955050602086013567ffffffffffffffff811115610b7f57610b7e6108f2565b5b610b8b88828901610ad0565b9450506040610b9c88828901610b1f565b935050606086013567ffffffffffffffff811115610bbd57610bbc6108f2565b5b610bc988828901610ad0565b925050608086013567ffffffffffffffff811115610bea57610be96108f2565b5b610bf688828901610ad0565b9150509295509295909350565b600081519050919050565b600082825260208201905092915050565b60005b83811015610c3d578082015181840152602081019050610c22565b60008484015250505050565b6000610c5482610c03565b610c5e8185610c0e565b9350610c6e818560208601610c1f565b610c77816109c2565b840191505092915050565b610c8b81610afe565b82525050565b60006080820190508181036000830152610cab8187610c49565b9050610cba6020830186610c82565b8181036040830152610ccc8185610c49565b90508181036060830152610ce08184610c49565b905095945050505050565b610cf481610917565b82525050565b6000602082019050610d0f6000830184610ceb565b92915050565b7f4f6e6c792061646d696e20616c6c6f7765640000000000000000000000000000600082015250565b6000610d4b601283610c0e565b9150610d5682610d15565b602082019050919050565b60006020820190508181036000830152610d7a81610d3e565b9050919050565b7f4f6e6c7920646f63746f7220616c6c6f77656400000000000000000000000000600082015250565b6000610db7601383610c0e565b9150610dc282610d81565b602082019050919050565b60006020820190508181036000830152610de681610daa565b9050919050565b7f50617469656e74206e6f74207265676973746572656400000000000000000000600082015250565b6000610e23601683610c0e565b9150610e2e82610ded565b602082019050919050565b60006020820190508181036000830152610e5281610e16565b9050919050565b7f4e487b7100000000000000000000000000000000000000000000000000000000600052602260045260246000fd5b60006002820490506001821680610ea057607f821691505b602082108103610eb357610eb2610e59565b5b50919050565b60008190508160005260206000209050919050565b60006020601f8301049050919050565b600082821b905092915050565b600060088302610f1b7fffffffffffffffffffffffffffffffffffffffffffffffffffffffffffffffff82610ede565b610f258683610ede565b95508019841693508086168417925050509392505050565b6000819050919050565b6000610f62610f5d610f5884610afe565b610f3d565b610afe565b9050919050565b6000819050919050565b610f7c83610f47565b610f90610f8882610f69565b848454610eeb565b825550505050565b600090565b610fa5610f98565b610fb0818484610f73565b505050565b5b81811015610fd457610fc9600082610f9d565b600181019050610fb6565b5050565b601f82111561101957610fea81610eb9565b610ff384610ece565b81016020851015611002578190505b61101661100e85610ece565b830182610fb5565b50505b505050565b600082821c905092915050565b600061103c6000198460080261101e565b1980831691505092915050565b6000611055838361102b565b9150826002028217905092915050565b61106e82610c03565b67ffffffffffffffff811115611087576110866109d3565b5b6110918254610e88565b61109c828285610fd8565b600060209050601f8311600181146110cf57600084156110bd578287015190505b6110c78582611049565b86555061112f565b601f1984166110dd86610eb9565b60005b82811015611105578489015182556001820191506020850194506020810190506110e0565b86831015611122578489015161111e601f89168261102b565b8355505b6001600288020188555050505b505050505050565b600060408201905061114c6000830185610ceb565b818103602083015261115e8184610c49565b90509392505050565b7f4e6f74206120726567697374657265642070617469656e740000000000000000600082015250565b600061119d601883610c0e565b91506111a882611167565b602082019050919050565b600060208201905081810360008301526111cc81611190565b905091905056fea2646970667358221220fbe4747ea7135a2c7ae88e1a2cfb2c08768f540d43d0df34c14b9a5e069bd43d64736f6c63430008150033",
  "linkReferences": {},
  "deployedLinkReferences": {}
}